{"abi":[{"type":"function","name":"DYNAMIC_FEE_FLAG","inputs":[],"outputs":[{"name":"","type":"uint24","internalType":"uint24"}],"stateMutability":"view"},{"type":"function","name":"MAX_LP_FEE","inputs":[],"outputs":[{"name":"","type":"uint24","internalType":"uint24"}],"stateMutability":"view"},{"type":"function","name":"OVERRIDE_FEE_FLAG","inputs":[],"outputs":[{"name":"","type":"uint24","internalType":"uint24"}],"stateMutability":"view"},{"type":"function","name":"REMOVE_OVERRIDE_MASK","inputs":[],"outputs":[{"name":"","type":"uint24","internalType":"uint24"}],"stateMutability":"view"},{"type":"error","name":"LPFeeTooLarge","inputs":[{"name":"fee","type":"uint24","internalType":"uint24"}]}],"bytecode":{"object":"0x60c8610039600b82828239805160001a60731461002c57634e487b7160e01b600052600060045260246000fd5b30600052607381538281f3fe730000000000000000000000000000000000000000301460806040526004361060515760003560e01c80633b01d64d1460565780633fc48eba1460775780636f95ebcf146080578063f26ef49d146089575b600080fd5b605f6240000081565b60405162ffffff909116815260200160405180910390f35b605f620f424081565b605f62bfffff81565b605f628000008156fea2646970667358221220467e60c40fd1068ef0767d2b6c3046585a8b96fdfc81ca111766134858d98d6964736f6c63430008180033","linkReferences":{}},"methodIdentifiers":{"DYNAMIC_FEE_FLAG()":"f26ef49d","MAX_LP_FEE()":"3fc48eba","OVERRIDE_FEE_FLAG()":"3b01d64d","REMOVE_OVERRIDE_MASK()":"6f95ebcf"},"id":27}