{"abi":[{"type":"function","name":"find","inputs":[{"name":"deployer","type":"address","internalType":"address"},{"name":"permissions","type":"tuple","internalType":"struct Hooks.Permissions","components":[{"name":"beforeInitialize","type":"bool","internalType":"bool"},{"name":"afterInitialize","type":"bool","internalType":"bool"},{"name":"beforeAddLiquidity","type":"bool","internalType":"bool"},{"name":"afterAddLiquidity","type":"bool","internalType":"bool"},{"name":"beforeRemoveLiquidity","type":"bool","internalType":"bool"},{"name":"afterRemoveLiquidity","type":"bool","internalType":"bool"},{"name":"beforeSwap","type":"bool","internalType":"bool"},{"name":"afterSwap","type":"bool","internalType":"bool"},{"name":"beforeDonate","type":"bool","internalType":"bool"},{"name":"afterDonate","type":"bool","internalType":"bool"},{"name":"beforeSwapReturnDelta","type":"bool","internalType":"bool"},{"name":"afterSwapReturnDelta","type":"bool","internalType":"bool"},{"name":"afterAddLiquidityReturnDelta","type":"bool","internalType":"bool"},{"name":"afterRemoveLiquidityReturnDelta","type":"bool","internalType":"bool"}]},{"name":"creationCode","type":"bytes","internalType":"bytes"},{"name":"constructorArgs","type":"bytes","internalType":"bytes"},{"name":"startSalt","type":"uint256","internalType":"uint256"}],"outputs":[{"name":"hookAddress","type":"address","internalType":"address"},{"name":"salt","type":"bytes32","internalType":"bytes32"}],"stateMutability":"pure"}],"bytecode":{"object":"0x6106dc61003a600b82828239805160001a60731461002d57634e487b7160e01b600052600060045260246000fd5b30600052607381538281f3fe73000000000000000000000000000000000000000030146080604052600436106100355760003560e01c80637194742c1461003a575b600080fd5b61004d610048366004610489565b610070565b604080516001600160a01b03909316835260208301919091520160405180910390f35b60008060001983106100b95760405162461bcd60e51b815260206004820152600d60248201526c0a6c2d8e840e8dede40d0d2ced609b1b60448201526064015b60405180910390fd5b600085856040516020016100ce929190610662565b60408051601f1981840301815291905290506000845b816101b2578251602080850191909120604080516001600160f81b03198185015260608e901b6bffffffffffffffffffffffff191660218201526035810185905260558082019390935281518082039093018352607501905280519101209450925082610151858a6101bf565b1561015f57600191506100e4565b806101698161067f565b91505060001981106101ad5760405162461bcd60e51b815260206004820152600d60248201526c0a6c2d8e840e8dede40d0d2ced609b1b60448201526064016100b0565b6100e4565b5050509550959350505050565b8051600090839080156101d457506120008116155b156101e35760009150506103a1565b826020015180156101f657506110008116155b156102055760009150506103a1565b8260400151801561021857506108008116155b156102275760009150506103a1565b8260600151801561023a57506104008116155b156102495760009150506103a1565b8260800151801561025c57506102008116155b1561026b5760009150506103a1565b8260a00151801561027e57506101008116155b1561028d5760009150506103a1565b8260c00151801561029f575060808116155b156102ae5760009150506103a1565b8260e0015180156102c0575060408116155b156102cf5760009150506103a1565b82610100015180156102e2575060208116155b156102f15760009150506103a1565b8261012001518015610304575060108116155b156103135760009150506103a1565b8261014001518015610326575060088116155b156103355760009150506103a1565b8261016001518015610348575060048116155b156103575760009150506103a1565b826101800151801561036a575060028116155b156103795760009150506103a1565b826101a00151801561038c575060018116155b1561039b5760009150506103a1565b60019150505b92915050565b634e487b7160e01b600052604160045260246000fd5b6040516101c0810167ffffffffffffffff811182821017156103e1576103e16103a7565b60405290565b803580151581146103f757600080fd5b919050565b600082601f83011261040d57600080fd5b813567ffffffffffffffff80821115610428576104286103a7565b604051601f8301601f19908116603f01168101908282118183101715610450576104506103a7565b8160405283815286602085880101111561046957600080fd5b836020870160208301376000602085830101528094505050505092915050565b60008060008060008587036102408112156104a357600080fd5b86356001600160a01b03811681146104ba57600080fd5b95506101c0601f1982018113156104d057600080fd5b6104d86103bd565b91506104e6602089016103e7565b82526104f4604089016103e7565b6020830152610505606089016103e7565b6040830152610516608089016103e7565b606083015261052760a089016103e7565b608083015261053860c089016103e7565b60a083015261054960e089016103e7565b60c083015261010061055c818a016103e7565b60e084015261012061056f818b016103e7565b828501526101409150610583828b016103e7565b908401526101606105958a82016103e7565b8285015261018091506105a9828b016103e7565b908401526101a06105bb8a82016103e7565b828501526105ca838b016103e7565b9084015250909450506101e086013567ffffffffffffffff808211156105ef57600080fd5b6105fb89838a016103fc565b945061020088013591508082111561061257600080fd5b5061061f888289016103fc565b9598949750929561022001359392505050565b6000815160005b818110156106535760208185018101518683015201610639565b50600093019283525090919050565b60006106776106718386610632565b84610632565b949350505050565b60006001820161069f57634e487b7160e01b600052601160045260246000fd5b506001019056fea2646970667358221220b11c4f36e6df11d0726b8b48db2a0dfe010046948ccb381fc22fdd14a064df0364736f6c63430008180033","linkReferences":{}},"methodIdentifiers":{"find(address,Hooks.Permissions,bytes,bytes,uint256)":"7194742c"},"id":44}