{"abi":[{"type":"constructor","inputs":[{"name":"_poolManager","type":"address","internalType":"contract IPoolManager"},{"name":"_announcer","type":"address","internalType":"address"},{"name":"_registry","type":"address","internalType":"address"}],"stateMutability":"nonpayable"},{"type":"function","name":"_handleSwap","inputs":[{"name":"key","type":"tuple","internalType":"struct PoolKey","components":[{"name":"currency0","type":"address","internalType":"Currency"},{"name":"currency1","type":"address","internalType":"Currency"},{"name":"fee","type":"uint24","internalType":"uint24"},{"name":"tickSpacing","type":"int24","internalType":"int24"},{"name":"hooks","type":"address","internalType":"contract IHooks"}]},{"name":"params","type":"tuple","internalType":"struct IPoolManager.SwapParams","components":[{"name":"zeroForOne","type":"bool","internalType":"bool"},{"name":"amountSpecified","type":"int256","internalType":"int256"},{"name":"sqrtPriceLimitX96","type":"uint160","internalType":"uint160"}]},{"name":"","type":"bytes","internalType":"bytes"}],"outputs":[{"name":"","type":"int256","internalType":"BalanceDelta"}],"stateMutability":"nonpayable"},{"type":"function","name":"afterAddLiquidity","inputs":[{"name":"sender","type":"address","internalType":"address"},{"name":"key","type":"tuple","internalType":"struct PoolKey","components":[{"name":"currency0","type":"address","internalType":"Currency"},{"name":"currency1","type":"address","internalType":"Currency"},{"name":"fee","type":"uint24","internalType":"uint24"},{"name":"tickSpacing","type":"int24","internalType":"int24"},{"name":"hooks","type":"address","internalType":"contract IHooks"}]},{"name":"params","type":"tuple","internalType":"struct IPoolManager.ModifyLiquidityParams","components":[{"name":"tickLower","type":"int24","internalType":"int24"},{"name":"tickUpper","type":"int24","internalType":"int24"},{"name":"liquidityDelta","type":"int256","internalType":"int256"},{"name":"salt","type":"bytes32","internalType":"bytes32"}]},{"name":"delta","type":"int256","internalType":"BalanceDelta"},{"name":"feesAccrued","type":"int256","internalType":"BalanceDelta"},{"name":"hookData","type":"bytes","internalType":"bytes"}],"outputs":[{"name":"","type":"bytes4","internalType":"bytes4"},{"name":"","type":"int256","internalType":"BalanceDelta"}],"stateMutability":"nonpayable"},{"type":"function","name":"afterDonate","inputs":[{"name":"sender","type":"address","internalType":"address"},{"name":"key","type":"tuple","internalType":"struct PoolKey","components":[{"name":"currency0","type":"address","internalType":"Currency"},{"name":"currency1","type":"address","internalType":"Currency"},{"name":"fee","type":"uint24","internalType":"uint24"},{"name":"tickSpacing","type":"int24","internalType":"int24"},{"name":"hooks","type":"address","internalType":"contract IHooks"}]},{"name":"amount0","type":"uint256","internalType":"uint256"},{"name":"amount1","type":"uint256","internalType":"uint256"},{"name":"hookData","type":"bytes","internalType":"bytes"}],"outputs":[{"name":"","type":"bytes4","internalType":"bytes4"}],"stateMutability":"nonpayable"},{"type":"function","name":"afterInitialize","inputs":[{"name":"sender","type":"address","internalType":"address"},{"name":"key","type":"tuple","internalType":"struct PoolKey","components":[{"name":"currency0","type":"address","internalType":"Currency"},{"name":"currency1","type":"address","internalType":"Currency"},{"name":"fee","type":"uint24","internalType":"uint24"},{"name":"tickSpacing","type":"int24","internalType":"int24"},{"name":"hooks","type":"address","internalType":"contract IHooks"}]},{"name":"sqrtPriceX96","type":"uint160","internalType":"uint160"},{"name":"tick","type":"int24","internalType":"int24"}],"outputs":[{"name":"","type":"bytes4","internalType":"bytes4"}],"stateMutability":"nonpayable"},{"type":"function","name":"afterRemoveLiquidity","inputs":[{"name":"sender","type":"address","internalType":"address"},{"name":"key","type":"tuple","internalType":"struct PoolKey","components":[{"name":"currency0","type":"address","internalType":"Currency"},{"name":"currency1","type":"address","internalType":"Currency"},{"name":"fee","type":"uint24","internalType":"uint24"},{"name":"tickSpacing","type":"int24","internalType":"int24"},{"name":"hooks","type":"address","internalType":"contract IHooks"}]},{"name":"params","type":"tuple","internalType":"struct IPoolManager.ModifyLiquidityParams","components":[{"name":"tickLower","type":"int24","internalType":"int24"},{"name":"tickUpper","type":"int24","internalType":"int24"},{"name":"liquidityDelta","type":"int256","internalType":"int256"},{"name":"salt","type":"bytes32","internalType":"bytes32"}]},{"name":"delta","type":"int256","internalType":"BalanceDelta"},{"name":"feesAccrued","type":"int256","internalType":"BalanceDelta"},{"name":"hookData","type":"bytes","internalType":"bytes"}],"outputs":[{"name":"","type":"bytes4","internalType":"bytes4"},{"name":"","type":"int256","internalType":"BalanceDelta"}],"stateMutability":"nonpayable"},{"type":"function","name":"afterSwap","inputs":[{"name":"sender","type":"address","internalType":"address"},{"name":"key","type":"tuple","internalType":"struct PoolKey","components":[{"name":"currency0","type":"address","internalType":"Currency"},{"name":"currency1","type":"address","internalType":"Currency"},{"name":"fee","type":"uint24","internalType":"uint24"},{"name":"tickSpacing","type":"int24","internalType":"int24"},{"name":"hooks","type":"address","internalType":"contract IHooks"}]},{"name":"params","type":"tuple","internalType":"struct IPoolManager.SwapParams","components":[{"name":"zeroForOne","type":"bool","internalType":"bool"},{"name":"amountSpecified","type":"int256","internalType":"int256"},{"name":"sqrtPriceLimitX96","type":"uint160","internalType":"uint160"}]},{"name":"delta","type":"int256","internalType":"BalanceDelta"},{"name":"hookData","type":"bytes","internalType":"bytes"}],"outputs":[{"name":"","type":"bytes4","internalType":"bytes4"},{"name":"","type":"int128","internalType":"int128"}],"stateMutability":"nonpayable"},{"type":"function","name":"announcer","inputs":[],"outputs":[{"name":"","type":"address","internalType":"contract IERC5564Announcer"}],"stateMutability":"view"},{"type":"function","name":"beforeAddLiquidity","inputs":[{"name":"sender","type":"address","internalType":"address"},{"name":"key","type":"tuple","internalType":"struct PoolKey","components":[{"name":"currency0","type":"address","internalType":"Currency"},{"name":"currency1","type":"address","internalType":"Currency"},{"name":"fee","type":"uint24","internalType":"uint24"},{"name":"tickSpacing","type":"int24","internalType":"int24"},{"name":"hooks","type":"address","internalType":"contract IHooks"}]},{"name":"params","type":"tuple","internalType":"struct IPoolManager.ModifyLiquidityParams","components":[{"name":"tickLower","type":"int24","internalType":"int24"},{"name":"tickUpper","type":"int24","internalType":"int24"},{"name":"liquidityDelta","type":"int256","internalType":"int256"},{"name":"salt","type":"bytes32","internalType":"bytes32"}]},{"name":"hookData","type":"bytes","internalType":"bytes"}],"outputs":[{"name":"","type":"bytes4","internalType":"bytes4"}],"stateMutability":"nonpayable"},{"type":"function","name":"beforeDonate","inputs":[{"name":"sender","type":"address","internalType":"address"},{"name":"key","type":"tuple","internalType":"struct PoolKey","components":[{"name":"currency0","type":"address","internalType":"Currency"},{"name":"currency1","type":"address","internalType":"Currency"},{"name":"fee","type":"uint24","internalType":"uint24"},{"name":"tickSpacing","type":"int24","internalType":"int24"},{"name":"hooks","type":"address","internalType":"contract IHooks"}]},{"name":"amount0","type":"uint256","internalType":"uint256"},{"name":"amount1","type":"uint256","internalType":"uint256"},{"name":"hookData","type":"bytes","internalType":"bytes"}],"outputs":[{"name":"","type":"bytes4","internalType":"bytes4"}],"stateMutability":"nonpayable"},{"type":"function","name":"beforeInitialize","inputs":[{"name":"sender","type":"address","internalType":"address"},{"name":"key","type":"tuple","internalType":"struct PoolKey","components":[{"name":"currency0","type":"address","internalType":"Currency"},{"name":"currency1","type":"address","internalType":"Currency"},{"name":"fee","type":"uint24","internalType":"uint24"},{"name":"tickSpacing","type":"int24","internalType":"int24"},{"name":"hooks","type":"address","internalType":"contract IHooks"}]},{"name":"sqrtPriceX96","type":"uint160","internalType":"uint160"}],"outputs":[{"name":"","type":"bytes4","internalType":"bytes4"}],"stateMutability":"nonpayable"},{"type":"function","name":"beforeRemoveLiquidity","inputs":[{"name":"sender","type":"address","internalType":"address"},{"name":"key","type":"tuple","internalType":"struct PoolKey","components":[{"name":"currency0","type":"address","internalType":"Currency"},{"name":"currency1","type":"address","internalType":"Currency"},{"name":"fee","type":"uint24","internalType":"uint24"},{"name":"tickSpacing","type":"int24","internalType":"int24"},{"name":"hooks","type":"address","internalType":"contract IHooks"}]},{"name":"params","type":"tuple","internalType":"struct IPoolManager.ModifyLiquidityParams","components":[{"name":"tickLower","type":"int24","internalType":"int24"},{"name":"tickUpper","type":"int24","internalType":"int24"},{"name":"liquidityDelta","type":"int256","internalType":"int256"},{"name":"salt","type":"bytes32","internalType":"bytes32"}]},{"name":"hookData","type":"bytes","internalType":"bytes"}],"outputs":[{"name":"","type":"bytes4","internalType":"bytes4"}],"stateMutability":"nonpayable"},{"type":"function","name":"beforeSwap","inputs":[{"name":"sender","type":"address","internalType":"address"},{"name":"key","type":"tuple","internalType":"struct PoolKey","components":[{"name":"currency0","type":"address","internalType":"Currency"},{"name":"currency1","type":"address","internalType":"Currency"},{"name":"fee","type":"uint24","internalType":"uint24"},{"name":"tickSpacing","type":"int24","internalType":"int24"},{"name":"hooks","type":"address","internalType":"contract IHooks"}]},{"name":"params","type":"tuple","internalType":"struct IPoolManager.SwapParams","components":[{"name":"zeroForOne","type":"bool","internalType":"bool"},{"name":"amountSpecified","type":"int256","internalType":"int256"},{"name":"sqrtPriceLimitX96","type":"uint160","internalType":"uint160"}]},{"name":"hookData","type":"bytes","internalType":"bytes"}],"outputs":[{"name":"","type":"bytes4","internalType":"bytes4"},{"name":"","type":"int256","internalType":"BeforeSwapDelta"},{"name":"","type":"uint24","internalType":"uint24"}],"stateMutability":"nonpayable"},{"type":"function","name":"createLimitOrder","inputs":[{"name":"key","type":"tuple","internalType":"struct PoolKey","components":[{"name":"currency0","type":"address","internalType":"Currency"},{"name":"currency1","type":"address","internalType":"Currency"},{"name":"fee","type":"uint24","internalType":"uint24"},{"name":"tickSpacing","type":"int24","internalType":"int24"},{"name":"hooks","type":"address","internalType":"contract IHooks"}]},{"name":"amountIn","type":"uint256","internalType":"uint256"},{"name":"minAmountOut","type":"uint256","internalType":"uint256"},{"name":"deadline","type":"uint256","internalType":"uint256"},{"name":"targetTick","type":"int24","internalType":"int24"},{"name":"stealthCommitment","type":"bytes32","internalType":"bytes32"},{"name":"schemeId","type":"uint256","internalType":"uint256"},{"name":"ephemeralPubKey","type":"bytes","internalType":"bytes"},{"name":"viewTag","type":"uint8","internalType":"uint8"}],"outputs":[{"name":"","type":"bytes32","internalType":"bytes32"}],"stateMutability":"nonpayable"},{"type":"function","name":"getHookPermissions","inputs":[],"outputs":[{"name":"","type":"tuple","internalType":"struct Hooks.Permissions","components":[{"name":"beforeInitialize","type":"bool","internalType":"bool"},{"name":"afterInitialize","type":"bool","internalType":"bool"},{"name":"beforeAddLiquidity","type":"bool","internalType":"bool"},{"name":"afterAddLiquidity","type":"bool","internalType":"bool"},{"name":"beforeRemoveLiquidity","type":"bool","internalType":"bool"},{"name":"afterRemoveLiquidity","type":"bool","internalType":"bool"},{"name":"beforeSwap","type":"bool","internalType":"bool"},{"name":"afterSwap","type":"bool","internalType":"bool"},{"name":"beforeDonate","type":"bool","internalType":"bool"},{"name":"afterDonate","type":"bool","internalType":"bool"},{"name":"beforeSwapReturnDelta","type":"bool","internalType":"bool"},{"name":"afterSwapReturnDelta","type":"bool","internalType":"bool"},{"name":"afterAddLiquidityReturnDelta","type":"bool","internalType":"bool"},{"name":"afterRemoveLiquidityReturnDelta","type":"bool","internalType":"bool"}]}],"stateMutability":"pure"},{"type":"function","name":"orderExists","inputs":[{"name":"","type":"bytes32","internalType":"bytes32"}],"outputs":[{"name":"","type":"bool","internalType":"bool"}],"stateMutability":"view"},{"type":"function","name":"orders","inputs":[{"name":"","type":"bytes32","internalType":"PoolId"},{"name":"","type":"int24","internalType":"int24"},{"name":"","type":"uint256","internalType":"uint256"}],"outputs":[{"name":"owner","type":"address","internalType":"address"},{"name":"tokenIn","type":"address","internalType":"address"},{"name":"tokenOut","type":"address","internalType":"address"},{"name":"amountIn","type":"uint256","internalType":"uint256"},{"name":"minAmountOut","type":"uint256","internalType":"uint256"},{"name":"deadline","type":"uint256","internalType":"uint256"},{"name":"stealthCommitment","type":"bytes32","internalType":"bytes32"},{"name":"executed","type":"bool","internalType":"bool"}],"stateMutability":"view"},{"type":"function","name":"poolManager","inputs":[],"outputs":[{"name":"","type":"address","internalType":"contract IPoolManager"}],"stateMutability":"view"},{"type":"function","name":"registry","inputs":[],"outputs":[{"name":"","type":"address","internalType":"contract IERC6538Registry"}],"stateMutability":"view"},{"type":"event","name":"LimitOrderCreated","inputs":[{"name":"orderId","type":"bytes32","indexed":true,"internalType":"bytes32"},{"name":"tokenIn","type":"address","indexed":true,"internalType":"address"},{"name":"tokenOut","type":"address","indexed":true,"internalType":"address"},{"name":"amountIn","type":"uint256","indexed":false,"internalType":"uint256"},{"name":"minAmountOut","type":"uint256","indexed":false,"internalType":"uint256"},{"name":"deadline","type":"uint256","indexed":false,"internalType":"uint256"},{"name":"targetTick","type":"int24","indexed":false,"internalType":"int24"}],"anonymous":false},{"type":"event","name":"LimitOrderExecuted","inputs":[{"name":"orderId","type":"bytes32","indexed":true,"internalType":"bytes32"},{"name":"executor","type":"address","indexed":true,"internalType":"address"},{"name":"amountIn","type":"uint256","indexed":false,"internalType":"uint256"},{"name":"amountOut","type":"uint256","indexed":false,"internalType":"uint256"}],"anonymous":false},{"type":"error","name":"HookNotImplemented","inputs":[]},{"type":"error","name":"NotPoolManager","inputs":[]}],"bytecode":{"object":"0x60e06040523480156200001157600080fd5b5060405162002480380380620024808339810160408190526200003491620005f1565b6001600160a01b038316608052826200004d3062000067565b506001600160a01b0391821660a0521660c0525062000645565b600062000153604080516101c081018252600080825260208201819052918101829052606081018290526080810182905260a0810182905260c0810182905260e08101829052610100810182905261012081018290526101408101829052610160810182905261018081018290526101a081019190915250604080516101c081018252600080825260208201819052918101829052606081018290526080810182905260a0810182905260c08101829052600160e0820152610100810182905261012081018290526101408101829052610160810182905261018081018290526101a081019190915290565b8051909150829015806200016a5750612000811615155b620001ab5760405162461bcd60e51b815260206004820152601260248201526000805160206200246083398151915260448201526064015b60405180910390fd5b81602001511580620001c05750611000811615155b620001fd5760405162461bcd60e51b81526020600482015260126024820152600080516020620024608339815191526044820152606401620001a2565b81604001511580620002125750610800811615155b6200024f5760405162461bcd60e51b81526020600482015260126024820152600080516020620024608339815191526044820152606401620001a2565b81606001511580620002645750610400811615155b620002a15760405162461bcd60e51b81526020600482015260126024820152600080516020620024608339815191526044820152606401620001a2565b81608001511580620002b65750610200811615155b620002f35760405162461bcd60e51b81526020600482015260126024820152600080516020620024608339815191526044820152606401620001a2565b8160a001511580620003085750610100811615155b620003455760405162461bcd60e51b81526020600482015260126024820152600080516020620024608339815191526044820152606401620001a2565b8160c0015115806200035957506080811615155b620003965760405162461bcd60e51b81526020600482015260126024820152600080516020620024608339815191526044820152606401620001a2565b8160e001511580620003aa57506040811615155b620003e75760405162461bcd60e51b81526020600482015260126024820152600080516020620024608339815191526044820152606401620001a2565b8161010001511580620003fc57506020811615155b620004395760405162461bcd60e51b81526020600482015260126024820152600080516020620024608339815191526044820152606401620001a2565b81610120015115806200044e57506010811615155b6200048b5760405162461bcd60e51b81526020600482015260126024820152600080516020620024608339815191526044820152606401620001a2565b8161014001511580620004a057506008811615155b620004dd5760405162461bcd60e51b81526020600482015260126024820152600080516020620024608339815191526044820152606401620001a2565b8161016001511580620004f257506004811615155b6200052f5760405162461bcd60e51b81526020600482015260126024820152600080516020620024608339815191526044820152606401620001a2565b81610180015115806200054457506002811615155b620005815760405162461bcd60e51b81526020600482015260126024820152600080516020620024608339815191526044820152606401620001a2565b816101a0015115806200059657506001811615155b620005d35760405162461bcd60e51b81526020600482015260126024820152600080516020620024608339815191526044820152606401620001a2565b505050565b6001600160a01b0381168114620005ee57600080fd5b50565b6000806000606084860312156200060757600080fd5b83516200061481620005d8565b60208501519093506200062781620005d8565b60408501519092506200063a81620005d8565b809150509250925092565b60805160a05160c051611da5620006bb60003960006102c70152600061012001526000818161044001528181610482015281816109b601528181610a2001528181610a8a01528181610af701528181610b8701528181610bef01528181610c5301528181610cf60152610ee00152611da56000f3fe608060405234801561001057600080fd5b50600436106101165760003560e01c80637b103999116100a2578063b6a8b0fa11610071578063b6a8b0fa14610332578063c4e833ce14610345578063dc4c90d31461043b578063dc98354e14610462578063e1b4af691461033257600080fd5b80637b103999146102c25780639f063efc1461027c578063ab371ac4146102e9578063b47b2fb1146102fc57600080fd5b80634213eed2116100e95780634213eed2146101be5780634ce38b021461021d578063575e24b41461023e5780636c2bbe7e1461027c5780636fe7e6eb146102af57600080fd5b80631d5a897f1461011b57806321d0ee701461015f578063259982e51461015f5780632cb77e9f1461018b575b600080fd5b6101427f000000000000000000000000000000000000000000000000000000000000000081565b6040516001600160a01b0390911681526020015b60405180910390f35b61017261016d36600461142f565b610475565b6040516001600160e01b03199091168152602001610156565b6101ae6101993660046114ab565b60016020526000908152604090205460ff1681565b6040519015158152602001610156565b6101d16101cc3660046114db565b6104d7565b604080516001600160a01b03998a168152978916602089015295909716948601949094526060850192909252608084015260a083015260c082015290151560e082015261010001610156565b61023061022b3660046115d5565b610556565b604051908152602001610156565b61025161024c366004611696565b6109a7565b604080516001600160e01b03199094168452602084019290925262ffffff1690820152606001610156565b61028f61028a3660046116f5565b610a12565b604080516001600160e01b03199093168352602083019190915201610156565b6101726102bd366004611786565b610a7d565b6101427f000000000000000000000000000000000000000000000000000000000000000081565b6102306102f73660046117e0565b610add565b61030f61030a366004611842565b610b79565b604080516001600160e01b03199093168352600f9190910b602083015201610156565b6101726103403660046118c8565b610be2565b61042e604080516101c081018252600080825260208201819052918101829052606081018290526080810182905260a0810182905260c0810182905260e08101829052610100810182905261012081018290526101408101829052610160810182905261018081018290526101a081019190915250604080516101c081018252600080825260208201819052918101829052606081018290526080810182905260a0810182905260c08101829052600160e0820152610100810182905261012081018290526101408101829052610160810182905261018081018290526101a081019190915290565b6040516101569190611927565b6101427f000000000000000000000000000000000000000000000000000000000000000081565b610172610470366004611a13565b610c46565b6000336001600160a01b037f000000000000000000000000000000000000000000000000000000000000000016146104c05760405163570c108560e11b815260040160405180910390fd5b6104cd8686868686610c98565b9695505050505050565b600060205282600052604060002060205281600052604060002081815481106104ff57600080fd5b6000918252602090912060089091020180546001820154600283015460038401546004850154600586015460068701546007909701546001600160a01b039687169a50948616985092909416955093909160ff1688565b60004287116105ac5760405162461bcd60e51b815260206004820152601a60248201527f446561646c696e65206d75737420626520696e2066757475726500000000000060448201526064015b60405180910390fd5b60006105bb60208c018c611a5d565b905060006105cf60408d0160208e01611a5d565b6040516323b872dd60e01b8152336004820152306024820152604481018d90529091506001600160a01b038316906323b872dd906064016020604051808303816000875af1158015610625573d6000803e3d6000fd5b505050506040513d601f19601f820116820180604052508101906106499190611a8f565b6106875760405162461bcd60e51b815260206004820152600f60248201526e151c985b9cd9995c8819985a5b1959608a1b60448201526064016105a3565b60006106a261069b368f90038f018f611abf565b60a0902090565b6040805160208101929092526bffffffffffffffffffffffff19606086811b8216928401929092529084901b166054820152606881018d9052608881018c905260a881018b905260e88a901b60c882015260cb81018990524360eb82015261010b0160408051601f1981840301815291815281516020928301206000818152600190935291205490915060ff16156107735760405162461bcd60e51b81526020600482015260146024820152734f7264657220616c72656164792065786973747360601b60448201526064016105a3565b600180600083815260200190815260200160002060006101000a81548160ff0219169083151502179055506000806107b58f80360381019061069b9190611abf565b815260200190815260200160002060008a60020b60020b8152602001908152602001600020604051806101000160405280336001600160a01b03168152602001856001600160a01b03168152602001846001600160a01b031681526020018e81526020018d81526020018c81526020018a815260200160001515815250908060018154018082558091505060019003906000526020600020906008020160009091909190915060008201518160000160006101000a8154816001600160a01b0302191690836001600160a01b0316021790555060208201518160010160006101000a8154816001600160a01b0302191690836001600160a01b0316021790555060408201518160020160006101000a8154816001600160a01b0302191690836001600160a01b03160217905550606082015181600301556080820151816004015560a0820151816005015560c0820151816006015560e08201518160070160006101000a81548160ff0219169083151502179055505050816001600160a01b0316836001600160a01b0316827f9cc0aa1076c88d964c8df3d73bd4303759c57ca77bcf71e54dc222cdba17bcb38f8f8f8f60405161098f94939291909384526020840192909252604083015260020b606082015260800190565b60405180910390a49c9b505050505050505050505050565b60008080336001600160a01b037f000000000000000000000000000000000000000000000000000000000000000016146109f45760405163570c108560e11b815260040160405180910390fd5b610a018888888888610cb3565b925092509250955095509592505050565b600080336001600160a01b037f00000000000000000000000000000000000000000000000000000000000000001614610a5e5760405163570c108560e11b815260040160405180910390fd5b610a6d89898989898989610cd1565b9150915097509795505050505050565b6000336001600160a01b037f00000000000000000000000000000000000000000000000000000000000000001614610ac85760405163570c108560e11b815260040160405180910390fd5b610ad485858585610c98565b95945050505050565b604051633cf3645360e21b81526000906001600160a01b037f0000000000000000000000000000000000000000000000000000000000000000169063f3cd914c90610b2e9087908790600401611bca565b6020604051808303816000875af1158015610b4d573d6000803e3d6000fd5b505050506040513d601f19601f82011682018060405250810190610b719190611c2a565b949350505050565b600080336001600160a01b037f00000000000000000000000000000000000000000000000000000000000000001614610bc55760405163570c108560e11b815260040160405180910390fd5b610bd3888888888888610ced565b91509150965096945050505050565b6000336001600160a01b037f00000000000000000000000000000000000000000000000000000000000000001614610c2d5760405163570c108560e11b815260040160405180910390fd5b610c3b878787878787610c98565b979650505050505050565b6000336001600160a01b037f00000000000000000000000000000000000000000000000000000000000000001614610c915760405163570c108560e11b815260040160405180910390fd5b610b718484845b6000604051630a85dc2960e01b815260040160405180910390fd5b6000806000604051630a85dc2960e01b815260040160405180910390fd5b600080604051630a85dc2960e01b815260040160405180910390fd5b60008080610d2c7f0000000000000000000000000000000000000000000000000000000000000000610d2761069b368c90038c018c611abf565b610df0565b50509150506000806000610d4a8b80360381019061069b9190611abf565b815260200190815260200160002060008360020b60020b8152602001908152602001600020905060005b8154811015610dd6576000828281548110610d9157610d91611c43565b60009182526020909120600890910201600781015490915060ff16158015610dbd575080600501544211155b15610dcd57610dcd8b8286610ea8565b50600101610d74565b5063b47b2fb160e01b9a60009a5098505050505050505050565b6000806000806000610e018661109b565b604051631e2eaeaf60e01b8152600481018290529091506000906001600160a01b03891690631e2eaeaf90602401602060405180830381865afa158015610e4c573d6000803e3d6000fd5b505050506040513d601f19601f82011682018060405250810190610e709190611c2a565b90506001600160a01b03811695508060a01c60020b945062ffffff8160b81c16935062ffffff8160d01c169250505092959194509250565b6040805160608101825260018152600384015460208201526000918101610ece846110d8565b6001600160a01b0316815250905060007f00000000000000000000000000000000000000000000000000000000000000006001600160a01b03166348c89491306001600160a01b031663ab371ac48886604051602401610f2f929190611c59565b60408051808303601f1901815291815260208201805160e094851b6001600160e01b03909116179052519184901b6001600160e01b0319168252610f77925090600401611cce565b6000604051808303816000875af1158015610f96573d6000803e3d6000fd5b505050506040513d6000823e601f3d908101601f19168201604052610fbe9190810190611d01565b806020019051810190610fd19190611c2a565b600785018054600160ff19909116811790915585549086015460038701546040516bffffffffffffffffffffffff19606094851b811660208301529290931b909116603483015260488201524360688201529091503390608801604051602081830303815290604052805190602001207f798b37efdb8e64c63beca49a6f38ac447bca5be1812f5c27331507a56a9e9c7b61106c8460801d90565b600f0b61107985600f0b90565b60408051928352600f9190910b60208301520160405180910390a35050505050565b6040516000906110bb908390600690602001918252602082015260400190565b604051602081830303815290604052805190602001209050919050565b60020b600060ff82901d80830118620d89e8811115611102576111026345c3193d60e11b84611393565b7001fffcb933bd6fad37aa2d162d1a5940016001821602600160801b18600282161561113e576ffff97272373d413259a46990580e213a0260801c5b600482161561115d576ffff2e50f5f656932ef12357cf3c7fdcc0260801c5b600882161561117c576fffe5caca7e10e4e61c3624eaa0941cd00260801c5b601082161561119b576fffcb9843d60f6159c9db58835c9266440260801c5b60208216156111ba576fff973b41fa98c081472e6896dfb254c00260801c5b60408216156111d9576fff2ea16466c96a3843ec78b326b528610260801c5b60808216156111f8576ffe5dee046a99a2a811c461f1969c30530260801c5b610100821615611218576ffcbe86c7900a88aedcffc83b479aa3a40260801c5b610200821615611238576ff987a7253ac413176f2b074cf7815e540260801c5b610400821615611258576ff3392b0822b70005940c7a398e4b70f30260801c5b610800821615611278576fe7159475a2c29b7443b29c7fa6e889d90260801c5b611000821615611298576fd097f3bdfd2022b8845ad8f792aa58250260801c5b6120008216156112b8576fa9f746462d870fdf8a65dc1f90e061e50260801c5b6140008216156112d8576f70d869a156d2a1b890bb3df62baf32f70260801c5b6180008216156112f8576f31be135f97d08fd981231505542fcfa60260801c5b62010000821615611319576f09aa508b5b7a84e1c677de54f3e99bc90260801c5b62020000821615611339576e5d6af8dedb81196699c329225ee6040260801c5b62040000821615611358576d2216e584f5fa1ea926041bedfe980260801c5b62080000821615611375576b048a170391f7dc42444e8fa20260801c5b600084131561138357600019045b63ffffffff0160201c9392505050565b816000528060020b60045260246000fd5b6001600160a01b03811681146113b957600080fd5b50565b600060a082840312156113ce57600080fd5b50919050565b6000608082840312156113ce57600080fd5b60008083601f8401126113f857600080fd5b50813567ffffffffffffffff81111561141057600080fd5b60208301915083602082850101111561142857600080fd5b9250929050565b6000806000806000610160868803121561144857600080fd5b8535611453816113a4565b945061146287602088016113bc565b93506114718760c088016113d4565b925061014086013567ffffffffffffffff81111561148e57600080fd5b61149a888289016113e6565b969995985093965092949392505050565b6000602082840312156114bd57600080fd5b5035919050565b8035600281900b81146114d657600080fd5b919050565b6000806000606084860312156114f057600080fd5b83359250611500602085016114c4565b9150604084013590509250925092565b634e487b7160e01b600052604160045260246000fd5b604051601f8201601f1916810167ffffffffffffffff8111828210171561154f5761154f611510565b604052919050565b600067ffffffffffffffff82111561157157611571611510565b50601f01601f191660200190565b600082601f83011261159057600080fd5b81356115a361159e82611557565b611526565b8181528460208386010111156115b857600080fd5b816020850160208301376000918101602001919091529392505050565b60008060008060008060008060006101a08a8c0312156115f457600080fd5b6115fe8b8b6113bc565b985060a08a0135975060c08a0135965060e08a013595506116226101008b016114c4565b94506101208a013593506101408a013592506101608a013567ffffffffffffffff81111561164f57600080fd5b61165b8c828d0161157f565b9250506101808a013560ff8116811461167357600080fd5b809150509295985092959850929598565b6000606082840312156113ce57600080fd5b600080600080600061014086880312156116af57600080fd5b85356116ba816113a4565b94506116c987602088016113bc565b93506116d88760c08801611684565b925061012086013567ffffffffffffffff81111561148e57600080fd5b60008060008060008060006101a0888a03121561171157600080fd5b873561171c816113a4565b965061172b8960208a016113bc565b955061173a8960c08a016113d4565b94506101408801359350610160880135925061018088013567ffffffffffffffff81111561176757600080fd5b6117738a828b016113e6565b989b979a50959850939692959293505050565b600080600080610100858703121561179d57600080fd5b84356117a8816113a4565b93506117b786602087016113bc565b925060c08501356117c7816113a4565b91506117d560e086016114c4565b905092959194509250565b600080600061012084860312156117f657600080fd5b61180085856113bc565b925061180f8560a08601611684565b915061010084013567ffffffffffffffff81111561182c57600080fd5b6118388682870161157f565b9150509250925092565b600080600080600080610160878903121561185c57600080fd5b8635611867816113a4565b955061187688602089016113bc565b94506118858860c08901611684565b9350610120870135925061014087013567ffffffffffffffff8111156118aa57600080fd5b6118b689828a016113e6565b979a9699509497509295939492505050565b60008060008060008061012087890312156118e257600080fd5b86356118ed816113a4565b95506118fc88602089016113bc565b945060c0870135935060e0870135925061010087013567ffffffffffffffff8111156118aa57600080fd5b8151151581526101c081016020830151611945602084018215159052565b506040830151611959604084018215159052565b50606083015161196d606084018215159052565b506080830151611981608084018215159052565b5060a083015161199560a084018215159052565b5060c08301516119a960c084018215159052565b5060e08301516119bd60e084018215159052565b5061010083810151151590830152610120808401511515908301526101408084015115159083015261016080840151151590830152610180808401511515908301526101a0928301511515929091019190915290565b600080600060e08486031215611a2857600080fd5b8335611a33816113a4565b9250611a4285602086016113bc565b915060c0840135611a52816113a4565b809150509250925092565b600060208284031215611a6f57600080fd5b8135611a7a816113a4565b9392505050565b80151581146113b957600080fd5b600060208284031215611aa157600080fd5b8151611a7a81611a81565b803562ffffff811681146114d657600080fd5b600060a08284031215611ad157600080fd5b60405160a0810181811067ffffffffffffffff82111715611af457611af4611510565b6040528235611b02816113a4565b81526020830135611b12816113a4565b6020820152611b2360408401611aac565b6040820152611b34606084016114c4565b60608201526080830135611b47816113a4565b60808201529392505050565b8035611b5e816113a4565b6001600160a01b039081168352602082013590611b7a826113a4565b808216602085015262ffffff611b9260408501611aac565b166040850152611ba4606084016114c4565b60020b606085015260808301359150611bbc826113a4565b808216608085015250505050565b6000610120611bd98386611b53565b8335611be481611a81565b151560a0840152602084013560c08401526040840135611c03816113a4565b6001600160a01b031660e08401526101008301819052600090830152506101400192915050565b600060208284031215611c3c57600080fd5b5051919050565b634e487b7160e01b600052603260045260246000fd5b6000610120611c688386611b53565b8351151560a0840152602084015160c08401526040909301516001600160a01b031660e083015250610100810182905260009181019190915261014001919050565b60005b83811015611cc5578181015183820152602001611cad565b50506000910152565b6020815260008251806020840152611ced816040850160208701611caa565b601f01601f19169190910160400192915050565b600060208284031215611d1357600080fd5b815167ffffffffffffffff811115611d2a57600080fd5b8201601f81018413611d3b57600080fd5b8051611d4961159e82611557565b818152856020838501011115611d5e57600080fd5b610ad4826020830160208601611caa56fea264697066735822122015e9d4f028c4501f70bbb66b29dea49a1792d9fedb6616c04952d4cf27d140a164736f6c63430008180033496e76616c696420686f6f6b20666c6167730000000000000000000000000000","linkReferences":{}},"methodIdentifiers":{"_handleSwap((address,address,uint24,int24,address),(bool,int256,uint160),bytes)":"ab371ac4","afterAddLiquidity(address,(address,address,uint24,int24,address),(int24,int24,int256,bytes32),int256,int256,bytes)":"9f063efc","afterDonate(address,(address,address,uint24,int24,address),uint256,uint256,bytes)":"e1b4af69","afterInitialize(address,(address,address,uint24,int24,address),uint160,int24)":"6fe7e6eb","afterRemoveLiquidity(address,(address,address,uint24,int24,address),(int24,int24,int256,bytes32),int256,int256,bytes)":"6c2bbe7e","afterSwap(address,(address,address,uint24,int24,address),(bool,int256,uint160),int256,bytes)":"b47b2fb1","announcer()":"1d5a897f","beforeAddLiquidity(address,(address,address,uint24,int24,address),(int24,int24,int256,bytes32),bytes)":"259982e5","beforeDonate(address,(address,address,uint24,int24,address),uint256,uint256,bytes)":"b6a8b0fa","beforeInitialize(address,(address,address,uint24,int24,address),uint160)":"dc98354e","beforeRemoveLiquidity(address,(address,address,uint24,int24,address),(int24,int24,int256,bytes32),bytes)":"21d0ee70","beforeSwap(address,(address,address,uint24,int24,address),(bool,int256,uint160),bytes)":"575e24b4","createLimitOrder((address,address,uint24,int24,address),uint256,uint256,uint256,int24,bytes32,uint256,bytes,uint8)":"4ce38b02","getHookPermissions()":"c4e833ce","orderExists(bytes32)":"2cb77e9f","orders(bytes32,int24,uint256)":"4213eed2","poolManager()":"dc4c90d3","registry()":"7b103999"},"id":43}