{"abi":[{"type":"function","name":"create2","inputs":[{"name":"salt","type":"bytes32","internalType":"bytes32"},{"name":"initCode","type":"bytes","internalType":"bytes"}],"outputs":[{"name":"deployed","type":"address","internalType":"address"}],"stateMutability":"nonpayable"}],"bytecode":{"object":"0x608060405234801561001057600080fd5b506101d4806100206000396000f3fe608060405234801561001057600080fd5b506004361061002b5760003560e01c8063b9aaf52614610030575b600080fd5b61004361003e3660046100e3565b61005f565b6040516001600160a01b03909116815260200160405180910390f35b6000828251602084016000f590506001600160a01b0381166100c75760405162461bcd60e51b815260206004820152601960248201527f437265617465323a204661696c6564206f6e206465706c6f7900000000000000604482015260640160405180910390fd5b92915050565b634e487b7160e01b600052604160045260246000fd5b600080604083850312156100f657600080fd5b82359150602083013567ffffffffffffffff8082111561011557600080fd5b818501915085601f83011261012957600080fd5b81358181111561013b5761013b6100cd565b604051601f8201601f19908116603f01168101908382118183101715610163576101636100cd565b8160405282815288602084870101111561017c57600080fd5b826020860160208301376000602084830101528095505050505050925092905056fea264697066735822122032800a907b6e44966203253124b8c8861e3e98dbfd15803be2d8a73664e7951964736f6c63430008180033","linkReferences":{}},"methodIdentifiers":{"create2(bytes32,bytes)":"b9aaf526"},"id":45}